:400000000080002011000000810000008100000008B544F2FA63C4F200031A6847F2BC60C4F20000026000F02FF800BF10B5054C237833B9044810B10448AFF30080012105
:40004000217010BD8881FF1F000000005817000008B5064B1BB106480649AFF300800648016811B1054A02B1904708BD00000000581700008C81FF1F0881FF1F000000009B
:40008000FEE700BFFEE700BF264B80B503F1FF3E002B42D0244F002057F8085C57F8104C57F80C1CF5B122680B4643F8042B04222E1F9542C6F38006194613D036B1616816
:4000C000082243F8041B954219460BD0A658194641F8046B0432A65804325E600B1D95421946F3D157F8045C8DB104232C1F9D420860C4F380020AD01AB108239D424860E6
:4001000005D01E1DC85008339D428851F9D10EF1FF3E1037BEF1FF3FBED101F06FFA00F0E3F9FEE701000000641800004EF60C524FF48061CEF20002C0F2FA514EF6145323
:4001400010B5CEF2000311601868002240F4007018601649164C134605E0A058013388500432302B0ED0032B94BF10591148013388500432032BF0D90E4801338850043242
:40018000302BF0D147F2BC61C4F2000108780A4A06494EF60853CEF200031070196000F065F8064B0020186010BD00BF0080FF1F00000000810000000481FF1F0081FF1F75
:4001C0000230800800F0058000BF013800467FF4FCAF7047EFF3108072B6704780F31088704700BFAFF30080B0F5004FF8B50646164D24D9A0F50044631E2868C3F3C037E5
:40020000FFF7DEFFB4F5004F13D93FB12868A4F50044FFF7D5FFB4F5004F0AD92868FFF7CFFFA4F580342868FFF7CAFFB4F5004FF4D8A6F50046701EC10BA6EBC1366A68BC
:4002400002FB06F0BDE8F840FFF7BABF0C81FF1F45F23013C4F200031A78400100F0200102F0DF0241EA020018707047F8B572B644F2E863C4F200031C784FF4A24044F042
:4002800004051D7000213022C4F2000001F0E5F945F2401000213022C4F2000001F0DDF945F2C01000211022C4F2000001F0D5F945F2F01000211022C4F2000001F0CDF973
:4002C000002001464FF48052C4F2010001F0C5F94FF4A05000214FF40062C4F2010001F0BCF94FF4804000214FF42062C4F2010001F0B3F94FF4984000214FF40072C4F2E2
:40030000010001F0AAF94FF4A04000212022C4F2010001F0A2F945F20302C4F20102117845F2130041F002061670C4F20100077844F2A03447F002030370C4F20004257892
:4003400044F2C23045F040022270C4F2000001784FF0904641F0100707703468756845F23210C4F2000044F2223304604560C4F200031A784FF4904742F008064FF486445B
:400380001E7002220123C4F20007C4F200044FF484453B7008212270C4F2000503244FF040274FF484703970C4F600102C70057844F2222244F2A160C4F20002C4F2000014
:4003C00044F220230570C4F20003118044F2252641F251211980C4F200064FF4F0703778FFF7EEFE357807F0010405F0010242EA44074FF4F0701725FFF7E2FE032F0DD139
:400400001EE0032C1CD0327802F0010343EA440101F00307FFF7D4FE032F11D033784FF4F07003F0010141EA4707FFF7C9FE013D07F003044FF4F07005F1FF35E1D1FEE7A2
:4004400044F2040344F20607C4F200030025C4F200074FF0070E44F208064FF4807CA3F800C044F2010483F800E0C4F200063D7048273770C4F200041D704FF4904002239B
:400480002370C4F20000812404210470C4F20801012040F2CF120870C4F60012127845F66E0002EA0E05C4F2000045F66F0145F6760305701409C4F20001C4F200034420D1
:4004C00044F2A0320C70C4F20002187014685068916844F2B033C4F200031C605860996092899A81F8BD00BF08B50120FFF7B0FE4FF47A70FFF778FE0020FFF7A9FE4FF447
:400500007A70FFF771FE0120FFF7A2FEEDE700BF03685A004CBF43F0004323F00043C018704700BF2DE9F04F064683B0914611B3013901918846002707EB080404EBD470D7
:40054000441006EBC40B5846FFF7E2FF019B651CA342824606EBC50015D0FFF7D9FF421ECA4504D9BC420BD004F1FF38E4E74A4502D22F46E0E78B46584603B0BDE8F08FBE
:400580004FF0000BF8E7CA45ECD8F5E7012807D0022807D0044B00280CBF1846002070470248704702487047A90C0000A10C0000990C0000036810B50446D80706D499070F
:4005C00004F1480009D500F07DFD23685A0709D518070ED5D90613D510BD00F06BFD23685A07F5D404F1D00000F074FD23681807F0D404F5D87000F075FD2368D906EBD4A9
:4006000004F50C70BDE8104000F0B0BD30B5254B83B004468D1E002B3CD0284601A9AFF300800246002A21D02A460199FFF77AFF0546F0B1FFF76CFF6B68A064012B11D0F8
:40064000281D002B22DBFFF763FF0021E06421650368002B10DBFFF75BFF00212061084603B030BD002020610521F8E722610921F5E720610921F2E7C3F30360FFF786FF22
:40068000206100280CBF09210021E8E70122E0642265DDE70449054A0846531AD9100191C2E700BF000000005C1700002C180000036803B11B181846704700BF0920704703
:4006C000704700BF2DE9F047ADF5916D03AD0C1D064617460FCC0FC50FCC0FC50FCC0FC594E80F0002ACD6F80C80D6F8189085E80F0000233046216C23609F4214BF0A27F5
:400700000927FFF783FF05468DB1A06B3246606447F010018DE8100201203346C047002831D1284622B00DF5806DBDE8F087236C21464FF41072736192A800F085FF3146A8
:4007400092AA336938469847A09982460094012061643246CDF8049039463346C04790B9204692A94FF4107200F06EFFBAF1080F06D13046216CFFF749FF09270546C3E7EE
:40078000BAF1070F01D00925CBE72846216CFFF797FF03A800F082FC70B504460D462046296CFFF733FF064650B92A6C01206261236921462A4698470828F0D0072801D041
:4007C00000F014FF3046296CFFF77AFF281D00F065FC00BF406C7047F0B5CB6BADF5117D0B6401AC0D1D0F4606460FCD0FC40FCD0FC40FCD0FC495E80F0084E80F004FF07F
:40080000FF30009030461099FFF700FF58B9346931466A46A04708280446F3D06846FFF7C9FE062C03D009200DF5117DF0BD30463946FFF7B1FF00BF30B4DD6B0446C16025
:400840008261194600221D6430BCFFF73BBF00BF70B54369C66804460D460B6426B10122FFF730FF00F0C2FE0369214602202A469847072803D0082808D000F0B7FE3046B5
:40088000296CFFF71DFF281D00F008FC20462946FFF782FFC26810B42AB1CC6B00220C6410BCFFF70FBF10BCFFF796BF704700BF08B5836801460BB10120984708BD00BF2E
:4008C00011B933B10220704704298CBF0220012070470F2AF6D800EB820251681846009B1960704700B585B00A4603AB002100930B46FFF7E5FF039805B000BD11B933B125
:400900000220704704298CBF0220012070470F2AF6D8009900EB8202096818465160704710B584B004AB0C4643F8042D0021009322460B46FFF7E2FF04B010BD2DE9F04FA6
:40094000CE6C0C4656F8041B8DB01D46174600F0030809910A96E3B90902032209918DF82D308DF82C20236DB8F1020F08BFA66B13F001011BD000200290022D40F3898004
:40098000FFF79CFE002800F08B8009200DB0BDE8F08F022BE7DC0B0CDAB209048DF82D30022309918DF82C3006EB8206DBE700F00803029104F15802D9B203920491D6F8BD
:4009C0000090B9F1000FD8D0022D41D0B6F80090B6F802A00436A36C0F212AF0010B38469B44FFF77FFF834518D829F00102934458452CBF002001200AF0010A09F001094C
:400A000049EA4A09B9F1010F26D009D2B8F1000F02D0002840F004810436D0E70020EBE7B9F1020FB1D1336823F0004AB8F1000F3CD130B1049A002A60D0BAF1000F00F0DE
:400A4000C380002B3EDB0AF1010A06EB8A06B6E7D6F804A00836BEE7B8F1000F34D1B0B17168D6F800908A1C8FD0039B08934B1C00F0BC80301DFFF71BFE4FEAD972014629
:400A800008AB2046AFF30080002840F0F380083695E7384609A900F0FDFB00287FF475AF0298002840F0AC8008206FE70D213846D4F82090FFF716FF814500F0C48033683B
:400AC000002BC0DA0436BEE70D213846D4F82090FFF708FF8145DAD1A06A8642D7D13046FFF716FD0F2102463846FFF719FF384600212246FFF714FF072047E7BAF1000FA0
:400B000062D006F1040C039A0AF1FF3101F001036046CDF804C005930892FFF7C9FD049A014608AB20469146AFF300804FF0010BDDF804C0002855D1D3450CF1040ED94633
:400B400042D00598B8B1039970460891CDF804E0FFF7AEFD0022014608AB2046AFF300800BF1010BDDF804C000283BD1D345D9460CF1040E28D00795039D0596CDF818803D
:400B8000F34658460895FFF793FD0022014608AB2046AFF300800BF1040806460BF1080B404609F10108CEB90895FFF781FD3246014608AB2046C146AFF3008070B908F1F0
:400BC0000109D145DDD1059E38460D21FFF78AFE089A20626262A6620620D7E6059EDDF81880079DCA457FF46AAFEDE738460D21FFF778FE206208996162A6620620C5E68D
:400C00000F213846FFF76EFE0E2102463846FFF787FE38460F211F4AFFF782FE0720B5E63046FFF775FC04360546A6632046AFF3008000283FF4A9AE38460F212A46FFF72C
:400C40006FFE0720A2E6A16A8E427FF438AF301D00230422C4F828A0E362226360633168002902DB01200290EDE60AF1010306EB830035E702460D2138460192FFF732FE1B
:400C8000206201980228B6D1089A234643F82C2F6362B2E7000000000223FFF74FBE00BF0123FFF74BBE00BF0023FFF747BE00BFF0B5D36BADF5277D136417AC151D0746E1
:400CC0000E460FCD0FC40FCD0FC40FCD0FC495E80F0084E80F004FF0FF30169026996846FFF794FC6A460C2180B916A8FFF718FE314616A8B847694616AA38B90820049B4A
:400D000098470528044602D00928E7D1092416A8FFF750FC20460DF5277DF0BD2DE9F0430446E9B004290CD8DFE801F0380391930F00150C012B96B200F06D81052B00F0C6
:400D4000C480022069B0BDE8F083002BF9D1102AF7D82368D80600F16B8102A8019200F00FFA019AA36BD10744BF53F8041B0291900744BF53F8041B0391500744BF53F8A4
:400D8000040B0490100748BF53F8042B02A8A36348BF059200F0EAF90020D3E7002BD0D1A36BD00744BF53F8041B6160910744BF53F8041BA160500744BF53F8041BE16013
:400DC000110744BF53F8041B2161D00644BF53F8041B6161910644BF53F8041BA161500644BF53F8041BE161110644BF53F8041B2162D00544BF53F8041B6162910544BF37
:400E000053F8041BA162500544BF53F8041BE162110544BF53F8041B2163D00444BF53F8041B616312F400501CBF53F8041BA163510444BF53F8041BE163120444BF53F82B
:400E4000042B2264002840F0E480A3637AE7012078E7032B7FF475AF150C96B27319102B3FF66FAF2768390700F1F48026A800F05BF9A06B770026A9034601EBC5057A1EA4
:400E8000EFB101682B4643F8041B02F00106B91E9AB136B15A1B1258013943F8042B4A1C0BD05E1B36581A4642F8046B561B365802395E60131D4A1CF3D100EB870326A8F3
:400EC000A36300F00FF900203CE77719202F3FF638AF0F2D40F2A880374656B30F2D11D82268D1070ED522F00101052B2160204600F0CB8022F0030240F8482B019300F084
:400F0000DDF8019B1FB12268500700F1AB80012B00F0B2800F2D04D846A8019300F0D6F8019B37B106A8019300F0D8F8019BC5F11006D4F838C0002EE0462CDD46A84FEA97
:400F4000460800EBC509DCF8000008F1FF364A4642F8040B06F00101A8F10200CEB141B1C9EB020151F80C10013842F8041B411C0FD0C9EB020656F80C60114641F8046B2C
:400F8000C9EB010656F80C60023856600A1D411CEFD10CEB88087FB3102D2CBF2A46102268A800EBC2014FEA4709D8F80000A1F5027209F1FF3642F8040B06F00101C4466A
:400FC000A9F10200B6B139B1C4465CF8041F013842F8041B411C0DD0DCF80460114641F8046BDCF80860023856600A1D411C0CF1080CF1D108EB8908012B23D00F2DC4F862
:40100000388002D846A800F05DF817B106A800F061F8002096E6711910293FF692AE0F2D3FF68FAE00275BE7102FFBD9103F55E723F01000206004F50C70019200F0A0F870
:40104000019A8AE608F1040346A8A36300F032F8002077E627F00802226004F5D87000F063F803E7204622F0040140F8D01B019300F034F8019B4AE746A8019300F01EF81C
:40108000019B002F7FF453AF53E741F0020140F8481B019300F01AF8019B33E700F1340191E838009C46A6464CF8045D90E8FF0FE54600BD90EC210B704700BF80EC210B2D
:4010C000704700BF90EC200B704700BF80EC200B704700BFD0EC200B704700BFC0EC200B704700BFF0EC0201F0EC0211F0EC0221F0EC0231F0EC0241F0EC0251F0EC02613D
:40110000F0EC0271F0EC0281F0EC0291F0EC02A1F0EC02B1F0EC02C1F0EC02D1F0EC02E1F0EC02F1704700BFE0EC0201E0EC0211E0EC0221E0EC0231E0EC0241E0EC025168
:40114000E0EC0261E0EC0271E0EC0281E0EC0291E0EC02A1E0EC02B1E0EC02C1E0EC02D1E0EC02E1E0EC02F1704700BFB0FC0181B0FC0191B0FC01A1B0FC01B1704700BFC5
:40118000A0FC0181A0FC0191A0FC01A1A0FC01B1704700BFEC4600B52DE900502DE9FF1F4FF000032DE90C0001A9FFF715FBDDF840E012B0704700BFEC4600B52DE90050D2
:4011C0002DE9FF1F4FF000032DE90C0001A9FFF73FFBDDF840E012B0704700BFEC4600B52DE900502DE9FF1F4FF000032DE90C0001A9FFF74FFBDDF840E012B0704700BF54
:40120000EC4600B52DE900502DE9FF1F4FF000032DE90C0001ABFFF70FFBDDF840E012B0704700BFEC4600B52DE900502DE9FF1F4FF000032DE90C0001AAFFF739FDDDF85F
:4012400040E012B0704700BF027A03461AB9427A42B9B0207047511E0068197201021960000E70474168501E587251F8040B032259601A72F2E700BF00B585B0002103ABA9
:4012800000930C220B46FFF71BFB039805B000BDFFF7F2BF2DE9F043064685B00D464FF000082846FFF7D0FFB028044600F0BF8020F07F02D1B201B300F0F000802879D0DB
:4012C00090283BD0A02847D0B0285BD0C02800F08A8004F0F803D02B0BD104F00704621C3046012142F400220523FFF717FD0028D7D0092005B0BDE8F0834FEA800903AFC9
:401300005FFA89FC0B46009730460D220CF10409FFF7D6FA04F04001C8B2039C50B904EB090203920021009730460D220B46FFF7E5FAB6E7C9EB04030393F3E704F00F023C
:401340000D2AD6D00F2AD4D003AF00210B4600973046FFF7B5FAE5E7E1434FF47F6301F0070043FA00F204F00804E4B21A400CB142F48042002130460B46FFF7CFFC00282B
:40138000B7D18EE7B12C66D0B22C77D0B32C00F0A78004F0FC00B4284FD004F007014B1C012143F4002230460B46FFF7B7FC00289FD176E72846FFF747FF220240EA0204D6
:4013C000B4F5004F95D0230500211A0C30460B462401FFF7A3FC00288BD114F4004F18BF4FF001085DE7C62C00F08D80C72C00F0948004F0F801C02900F0A280C82C00F0B0
:40140000BE80C92C7FF475AF2846FFF71DFF00F00F03013300F0F00243EA0232304601210523FFF77BFC00287FF463AF39E7B8F1000F00F0938000205CE704F00302531C69
:40144000022143F4802230460B46FFF767FC00287FF44FAF25E72846FFF7F6FE024600283FF447AF10F0F0017FF443AF30460B46FFF754FC00287FF43CAF12E7002103AC08
:401480000D220B4600943046FFF71AFA2846FFF7DBFE20F07F02022712F0FF0F0FD000F07F0000FA07F1039B28465A180392FFF7CBFE20F07F01073711F0FF0FEFD100F0F2
:4014C0007F0000FA07F2039B002103F50177BF18009430460D220B460397FFF70FFAE0E62846FFF7B1FE00F00F014B1C00F0F002012143EA023230460B46FFF70FFC0028BC
:401500007FF4F7AECDE62846FFF79EFE00F00F02531C032100F0F002EBE72846FFF794FE024600283FF4E5AE10F0F0037FF4E1AE30460421FFF7F2FB00287FF4DAAEB0E640
:4015400004F00F014B1C032143F4202230460B46FFF7E4FB00287FF4CCAEA2E603AC41460E22434600943046FFF7AAF90094304641460F224346FFF7C1F94046BAE6284609
:40158000FFF762FE00F0F00200F00F001032431C42E700BF10B5C36C84B003225C688DF80C20DA7924020833084601A9019402938DF80D20FFF76EFE04B010BD08B5FFF78B
:4015C00067FE806C08BD00BF08B5FFF761FEC36CDA7903EB8200083008BD00BF08B500F005F800BF08B500F001F800BF08B5062000F064F80120FEF745FD000038B50E4DB9
:401600000E4B0024E81A8510AC4205D00B4951F8242090470134F7E700F00AF90849094A541AA5100024AC4205D0054B53F8240080470134F7E738BD3C1800003C18000031
:401640003C1800004418000010B50023934203D0CC5CC4540133F9E710BD82180346934202D003F8011BFAE770471F2938B505460C4604D9162101604FF0FF3038BD426C78
:4016800012B152F821304BB9284600F031F8224601462846BDE8384000F018B8012B0AD0591C03D116202860012038BD002542F8245020469847002038BD0000024B014663
:4016C0001868FFF7D2BF00BF8081FF1F38B5074C0023054608461146236000F015F8431C02D1216801B1296038BD00BFA481FF1F00F000B848F2A413C1F6FF7358221A608F
:401700004FF0FF30704700BF48F2A413C1F6FF7358221A604FF0FF30704700BF08B10181B0B0008400000000A1B20181B0B0AE010000000008B10181B0B0008400000000B1
:4017400008B10181B0B000840000000008B10181B0B0008400000000000000008CEDFF7FBCFFFF7FACEDFF7F0100000048EEFF7FB0B0A88098EEFF7FB0A9028034EFFF7F27
:401780000100000040EFFF7FA0FFFF7F0CF0FF7FB0B0AA8040F0FF7F010000003CF0FF7FAB10B28094F0FF7F01000000A4F0FF7FB0B0AA80E0F0FF7F01000000F4F0FF7FC4
:4017C00074FFFF7FFCF0FF7F0100000070F1FF7FB0AF0C80C4F4FF7F01000000D4F4FF7FAB26B28038F5FF7FAD3F2880B0F8FF7F0100000084FAFF7F0084048094FAFF7FCD
:401800000100000090FAFF7FB0AD048088FDFF7FB0A80380A8FDFF7F28FFFF7FACFDFF7F2CFFFF7FB8FDFF7F0100000043000000F8B500BFF8BC08BC9E4670475100000001
:401840002D010000F8B500BFF8BC08BC9E4670472D000000681800000881FF1F800000002000000000000000000000000000E02EC05D00001800000000366E0100000000DF
:40188000000000000000000000000000000000000000000000000000000000002C1800000000000000000000000000000000000000000000000000000000000000000000E4
:4018C00000000000000000000000000000000000000000000000000000000000000000001C81FF1F000000000000000000000000000000000000000000000000000000002D
:4019000000000000000000000000000000000000000000000000000000000000000000000000000000000000000000000000000000000000000000000000000000000000A7
:401940000000000000000000000000000000000000000000000000000000000000000000000000000000000000000000000000000000000000000000000000000000000067
:401980000000000000000000000000000000000000000000000000000000000000000000000000000000000000000000000000000000000000000000000000000000000027
:4019C00000000000000000000000000000000000000000000000000000000000000000000000000000000000000000000000000000000000000000000000000000000000E7
:020000040003F7
:0200000480007A
:400000000020200000000000000000000000000000000000000000000000000000000000000000000000000000000000000000000000000000000000000000000000000080
:400040000000000000000000000000000000000000000000000000000000000000000000000000000000000000000000000000000000000000000000000000000000000080
:400080000000000000000000000000000000000000000000000000000000000000000000000000000000000000000000000000000000000000000000000000000000000040
:4000C0000000000000000000000000000000000000000000000000000000000000000000000000000000000000000000000000000000000000000000000000000000000000
:4001000000000000000000000000000000000000000000000000000000000000000000000000000000000000000000000000000000000000000000000000000000000000BF
:0200000490006A
:0400000000004005B7
:0200000490105A
:04000000BC90ACAF55
:0200000490303A
:0200000043F1CA
:0200000490402A
:4000000000000000000000000000000000000000000000000000000000000000000000000000000000000000000000000000000000000000000000000000000000000000C0
:400040000000000000000000000000000000000000000000000000000000000000000000000000000000000000000000000000000000000000000000000000000000000080
:400080000000000000000000000000000000000000000000000000000000000000000000000000000000000000000000000000000000000000000000000000000000000040
:4000C0000000000000000000000000000000000000000000000000000000000000000000000000000000000000000000000000000000000000000000000000000000000000
:0200000490501A
:0C00000000012E12F06900012E1D345A80
:00000001FF